:1000000012C024C023C022C021C020C01FC01EC0F7
:100010001DC01CC01BC01AC019C018C017C016C014
:1000200015C014C013C011241FBECFE5D4E0DEBF3D
:10003000CDBF10E0A0E6B0E0E0EAF1E002C005903C
:100040000D92AC39B107D9F72BD0A8C0D9CF8AB15E
:1000500088618AB980B5866880BD83E389B910BCA0
:100060000895FC0190E005C05D9BFECF81918CB9A5
:100070009F5F9617C8F3089580E487B987E886B92B
:10008000089597B1907F97B997B18770892B87B9F9
:10009000369A349BFECF349A24B135B1C901089504
:1000A0000F931F93CF93DF9383E084BB8FEF81BBCC
:1000B00080E487B987E886B9CADF08EC10E082E0FF
:1000C000E0DFEC0183E0DDDF22E0CD30D207A0F0FD
:1000D00021E0823F920780F022E08730920760F4AF
:1000E00080E990E066E0BDDF88EB9BE0F8013197A6
:1000F000F1F70197D9F7E3CF21E0CA3FD207A0F487
:1001000021E0823F920780F022E08730920760F47E
:100110008AE890E066E0A5DF88EB9BE0F801319784
:10012000F1F70197D9F7CBCF22E086309207A0F004
:1001300021E0C93FD20780F022E0CE30D20760F440
:100140008EE790E066E08DDF88EB9BE0F801319769
:10015000F1F70197D9F7B3CF835F914098F481E02D
:10016000C93FD80778F0CE50D24060F484E890E0E0
:1001700066E077DF88EB9BE0F8013197F1F70197B4
:10018000D9F79DCF86E990E066E06BDF88EB9BE0D6
:10019000F8013197F1F70197D9F791CFF894FFCF94
:1001A000AA0210F10155AA0210F20255AA0210F398
:1001B0000355AA0210F40455AA0210F50555AA0227
:1001C00007010855AA0207020955AA0207030A55A2
:0C01D000AA0207040B55AA0207000755FD
:00000001FF
